:020000040800F2
:100000000040022059370008AB090008B109000878
:1000100000000000000000000000000000000000E0
:10002000000000000000000000000000B709000808
:100030000000000000000000C1090008CB09000812
:10004000A9370008A9370008A9370008A937000810
:10005000A9370008A9370008A9370008A937000800
:10006000A9370008A9370008A9370008A9370008F0
:10007000A9370008A9370008A9370008A9370008E0
:10008000D9090008A9370008A9370008A9370008CE
:10009000A9370008A9370008A9370008A9370008C0
:1000A000A9370008A9370008A9370008A9370008B0
:0C00B000A9370008A9370008A93700088C
:1000BC0010B5064C2378002B07D1054B002B02D032
:1000CC00044800E000BF0123237010BD0C00002089
:1000DC000000000004380008044B10B5002B03D0BE
:1000EC000349044800E000BF10BDC04600000000FA
:1000FC001000002004380008002243088B4274D3FF
:10010C0003098B425FD3030A8B4244D3030B8B420C
:10011C0028D3030C8B420DD3FF22090212BA030C15
:10012C008B4202D31212090265D0030B8B4219D3F6
:10013C0000E0090AC30B8B4201D3CB03C01A524116
:10014C00830B8B4201D38B03C01A5241430B8B425E
:10015C0001D34B03C01A5241030B8B4201D30B0347
:10016C00C01A5241C30A8B4201D3CB02C01A52416E
:10017C00830A8B4201D38B02C01A5241430A8B4231
:10018C0001D34B02C01A5241030A8B4201D30B021A
:10019C00C01A5241CDD2C3098B4201D3CB01C01A34
:1001AC00524183098B4201D38B01C01A524143093E
:1001BC008B4201D34B01C01A524103098B4201D32C
:1001CC000B01C01A5241C3088B4201D3CB00C01A99
:1001DC00524183088B4201D38B00C01A5241430811
:1001EC008B4201D34B00C01A5241411A00D2014636
:1001FC00524110467047FFE701B5002000F0F0F8BF
:10020C0002BDC0460029F7D076E7704703460B4382
:10021C007FD4002243088B4274D303098B425FD3F3
:10022C00030A8B4244D3030B8B4228D3030C8B421F
:10023C000DD3FF22090212BA030C8B4202D3121205
:10024C00090265D0030B8B4219D300E0090AC30BDA
:10025C008B4201D3CB03C01A5241830B8B4201D387
:10026C008B03C01A5241430B8B4201D34B03C01A70
:10027C005241030B8B4201D30B03C01A5241C30AE8
:10028C008B4201D3CB02C01A5241830A8B4201D359
:10029C008B02C01A5241430A8B4201D34B02C01A43
:1002AC005241030A8B4201D30B02C01A5241CDD2E8
:1002BC00C3098B4201D3CB01C01A524183098B4233
:1002CC0001D38B01C01A524143098B4201D34B011C
:1002DC00C01A524103098B4201D30B01C01A52417F
:1002EC00C3088B4201D3CB00C01A524183088B4206
:1002FC0001D38B00C01A524143088B4201D34B00EF
:10030C00C01A5241411A00D2014652411046704760
:10031C005DE0CA0F00D04942031000D34042534065
:10032C0000229C4603098B422DD3030A8B4212D325
:10033C00FC22890112BA030A8B420CD38901921157
:10034C008B4208D3890192118B4204D389013AD094
:10035C00921100E08909C3098B4201D3CB01C01A69
:10036C00524183098B4201D38B01C01A524143097C
:10037C008B4201D34B01C01A524103098B4201D36A
:10038C000B01C01A5241C3088B4201D3CB00C01AD7
:10039C00524183088B4201D38B00C01A5241D9D2EF
:1003AC0043088B4201D34B00C01A5241411A00D270
:1003BC000146634652415B10104601D34042002B6C
:1003CC0000D54942704763465B1000D3404201B5EB
:1003DC00002000F005F802BD0029F8D016E77047A0
:1003EC007047C046002B11D1002A0FD1002900D133
:1003FC00002802D00021C943080007B4024802A11A
:10040C004018029003BDC046D9FFFFFF03B46846F5
:10041C0001B5029800F006F8019B9E4602B00CBC98
:10042C007047C046F0B557464E464546DE46E0B5E9
:10043C0004000D009246994683B08B4230D82DD0E3
:10044C004946504600F0BAF829000600200000F09A
:10045C00B5F8331A9846203B9B4633D45A4653463C
:10046C00934042461F00534693401E00AF423AD879
:10047C00AF4200D178E05B46A41BBD41002B00DAF3
:10048C0075E0002200230092019301235A46934009
:10049C000193012342469340009328E08242CFD936
:1004AC0000220023009201930C9B002B01D01C60B6
:1004BC005D600098019903B0F0BCBB46B246A946FA
:1004CC00A046F0BD424620239B1A5246DA404146D4
:1004DC0013004A468A40170042461F435346934036
:1004EC001E00AF42C4D90022002300920193434660
:1004FC00002BD9D0FB0772081A4346467B080EE046
:10050C00AB4201D1A2420CD8A41A9D41012024195E
:10051C006D410021013E24184D41002E06D0AB4206
:10052C00EED9013E24196D41002EF8D100980199A5
:10053C005B4600196941002B24DB2B005A464446CC
:10054C00D3402A00E2401C005B461500002B2ADB3E
:10055C0026009E40330026004746BE403200801ADB
:10056C009941009001919FE7A342BCD883E7424692
:10057C00202300219B1A0022009101920122DA40D3
:10058C00019286E7424620239B1A2A0046469A404F
:10059C002300F340444613432A00E2401C005B4610
:1005AC001500002BD4DA42462F002023260097405A
:1005BC009B1ADE403B003343CDE7C04610B5002903
:1005CC0003D100F007F8203002E0080000F002F838
:1005DC0010BDC0461C2101231B04984201D3000C02
:1005EC0010391B0A984201D3000A08391B0998429A
:1005FC0001D30009043902A2105C40187047C046B0
:10060C0004030202010101010000000000000000CF
:10061C0080B500AF02F0D4FF00F014F800F06AF9D6
:10062C0000F01AF900F06CF800F0BEF8A023DB051E
:10063C002021180002F08BFEFA239B00180003F017
:10064C0045F8F3E790B595B000AF14243B191800AA
:10065C003C231A00002103F0C7F83B1D180010239F
:10066C001A00002103F0C0F880239B00180002F050
:10067C0089FE3B1902221A603B1980225200DA6073
:10068C0021007B1800221A617B1840225A617B18CA
:10069C0002221A627B1802225A627B1800229A628A
:1006AC007B180822DA627B18802292021A637B186C
:1006BC00802292045A637B18802292059A637B18DD
:1006CC00180001F075FD031E01D000F063F93B1D0D
:1006DC0007221A603B1D02225A603B1D00229A60C1
:1006EC003B1D0022DA603B1D0221180002F0C0F80D
:1006FC00031E01D000F04EF9C046BD4615B090BDAA
:10070C0080B588B000AF1023FB18180010231A0016
:10071C00002103F069F83B1D18000C231A0000217E
:10072C0003F062F81F4B8022D2051A601D4B002289
:10073C005A601C4B00229A601A4B01225242DA601A
:10074C00184B00221A61174B00229A61154B1800A6
:10075C0000F008FA031E01D000F01CF910217B18E0
:10076C00802252011A607A180E4B1100180000F00A
:10077C0059FB031E01D000F00DF93B1D00221A603D
:10078C003B1D00229A603A1D064B1100180000F028
:10079C007BFD031E01D000F0FDF8C046BD4608B03D
:1007AC0080BDC0462800002080B588B000AF102363
:1007BC00FB18180010231A00002103F015F83B1D3C
:1007CC0018000C231A00002103F00EF81E4B1F4AD0
:1007DC001A601D4B1E4A5A601B4B00229A601A4B22
:1007EC001C4ADA60184B00221A61174B00229A61DE
:1007FC00154B180000F0B6F9031E01D000F0CAF832
:10080C0010217B18802252011A607A180E4B1100AD
:10081C00180000F007FB031E01D000F0BBF83B1DD5
:10082C0000221A603B1D00229A603A1D064B1100F3
:10083C00180000F029FD031E01D000F0ABF8C046F3
:10084C00BD4608B080BDC0467400002000040040C6
:10085C00FF1800001027000080B500AF234B244A7E
:10086C001A60224BE12252025A60204B00229A60FD
:10087C001E4B0022DA601D4B00221A611B4B0C220E
:10088C005A611A4B00229A61184B0022DA61174BFD
:10089C0000221A62154B00225A62144B00229A62F3
:1008AC00124B180000F07EFD031E01D000F072F810
:1008BC000E4B0021180001F08FFB031E01D000F03D
:1008CC0069F80A4B0021180001F0C6FB031E01D089
:1008DC0000F060F8054B180001F044FB031E01D03A
:1008EC0000F058F8C046BD4680BDC046C000002090
:1008FC000044004090B589B000AF0C243B1918009F
:10090C0014231A00002102F06FFF214B5A6B204B6D
:10091C0004210A435A631E4B5B6B04221340BB60D9
:10092C00BB681B4B5A6B1A4B20210A435A63184B5A
:10093C005B6B202213407B607B68154B5A6B144B0E
:10094C0001210A435A63124B5B6B012213403B603B
:10095C003B68A023DB0500222021180002F0DAFC02
:10096C0021007B1820221A607B1801225A607B1808
:10097C0000229A607B180222DA607A18A023DB0529
:10098C001100180002F05AFBC046BD4609B090BDDC
:10099C000010024080B500AF72B6C046FEE780B5CD
:1009AC0000AFFEE780B500AFFEE780B500AFC046F4
:1009BC00BD4680BD80B500AFC046BD4680BD80B58C
:1009CC0000AF02F067FEC046BD4680BD80B500AFEB
:1009DC00034B180000F01EF9C046BD4680BDC04652
:1009EC007400002080B582B000AF114B1A6C104B14
:1009FC0001210A431A640E4B1B6C012213407B60CD
:100A0C007B680B4BDA6B0A4B802149050A43DA638E
:100A1C00074BDA6B80235B0513403B603B68C023BC
:100A2C00DB00180002F076FEC046BD4602B080BD69
:100A3C000010024080B584B000AF78607B681A6803
:100A4C008023DB059A420CD1144BDA6B134B01213A
:100A5C000A43DA63114BDB6B01221340FB60FB682A
:100A6C0018E07B681B680E4A934213D10B4BDA6B70
:100A7C000A4B02210A43DA63084BDB6B0222134058
:100A8C00BB60BB6800220021102002F067FD102023
:100A9C0002F079FDC046BD4604B080BD0010024096
:100AAC000004004090B59DB000AF78605C23FB184B
:100ABC00180014231A00002102F096FE10243B1992
:100ACC0018004C231A00002102F08EFE7B681B6874
:100ADC00224A93423ED13B1902221A603B19002252
:100AEC009A603B19180002F06DF8031E01D0FFF755
:100AFC0051FF1B4BDA6B1A4B802189020A43DA63D4
:100B0C00174BDA6B80239B021340FB60FB68144B82
:100B1C005A6B134B01210A435A63114B5B6B012235
:100B2C001340BB60BB685C217B180C221A607B18DD
:100B3C0002225A607B1800229A607B180022DA602D
:100B4C007B1801221A617A18A023DB05110018000A
:100B5C0002F074FAC046BD461DB090BD0044004082
:100B6C000010024080B582B000AF78607B68002B2B
:100B7C0001D101234AE07B683D229B5CDBB2002B58
:100B8C0007D17B683C22002199547B681800FFF741
:100B9C0051FF7B683D22022199547B681A687B685F
:100BAC0004331900100000F03BFA7B684822012145
:100BBC0099547B683E22012199547B683F22012184
:100BCC0099547B684022012199547B684122012170
:100BDC0099547B684222012199547B68432201215C
:100BEC0099547B684422012199547B684522012148
:100BFC0099547B684622012199547B684722012134
:100C0C0099547B683D220121995400231800BD465C
:100C1C0002B080BD80B584B000AF78607B681B6883
:100C2C00DB68FB607B681B681B69BB60BB680222CE
:100C3C00134021D0FB68022213401DD07B681B6837
:100C4C00032252421A617B6801221A777B681B6867
:100C5C009B690322134004D07B68180000F0C8F98C
:100C6C0007E07B68180000F0BBF97B68180000F007
:100C7C00C7F97B6800221A77BB680422134022D084
:100C8C00FB68042213401ED07B681B68052252426D
:100C9C001A617B6802221A777B681B689A69C023E9
:100CAC009B00134004D07B68180000F0A1F907E00A
:100CBC007B68180000F094F97B68180000F0A0F92C
:100CCC007B6800221A77BB680822134021D0FB688E
:100CDC00082213401DD07B681B68092252421A61FE
:100CEC007B6804221A777B681B68DB69032213403C
:100CFC0004D07B68180000F07BF907E07B681800D3
:100D0C0000F06EF97B68180000F07AF97B6800221D
:100D1C001A77BB681022134022D0FB6810221340B4
:100D2C001ED07B681B68112252421A617B68082214
:100D3C001A777B681B68DA69C0239B00134004D0C8
:100D4C007B68180000F054F907E07B68180000F08D
:100D5C0047F97B68180000F053F97B6800221A777A
:100D6C00BB68012213400CD0FB680122134008D051
:100D7C007B681B68022252421A617B68180000F0E3
:100D8C0027F9BB688022134004D1BA6880239B01E9
:100D9C0013400BD0FB688022134007D07B681B6884
:100DAC001E4A1A617B68180000F0ECFABA688023BE
:100DBC005B0013400BD0FB688022134007D07B688C
:100DCC001B68174A1A617B68180000F0E3FABB68CD
:100DDC00402213400CD0FB684022134008D07B68A3
:100DEC001B68412252421A617B68180000F010F90E
:100DFC00BB68202213400CD0FB682022134008D083
:100E0C007B681B68212252421A617B68180000F033
:100E1C00B1FAC046BD4604B080BDC0467FDFFFFFBF
:100E2C00FFFEFFFF80B584B000AF786039600F2300
:100E3C00FB1800221A707B683C229B5C012B01D1B1
:100E4C000223BCE07B683C22012199547B683D2243
:100E5C00022199547B681B689B68BB60BB685A4A2B
:100E6C001340BB60BB68594A1340BB607B681B686E
:100E7C00BA689A603B681B6880229201934240D00A
:100E8C0080229201934200D988E080225201934241
:100E9C0000D188E080225201934200D97EE0702B71
:100EAC0018D000D97AE0602B4FD000D976E0502BC7
:100EBC003BD000D972E0402B57D000D96EE0302BDC
:100ECC0063D06BD8202B60D068D8002B5DD0102B52
:100EDC005BD063E07B6818683B6899683B685A682C
:100EEC003B68DB6800F0B0F97B681B689B68BB60F3
:100EFC00BB6877221343BB607B681B68BA689A6037
:100F0C0052E07B6818683B6899683B685A683B6894
:100F1C00DB6800F099F97B681B689A687B681B6832
:100F2C008021C9010A439A603EE07B6818683B68DF
:100F3C0059683B68DB681A0000F00AF97B681B688B
:100F4C005021180000F064F92EE07B6818683B68AB
:100F5C0059683B68DB681A0000F028F97B681B684D
:100F6C006021180000F054F91EE07B6818683B689B
:100F7C0059683B68DB681A0000F0EAF87B681B686C
:100F8C004021180000F044F90EE07B681A683B68B9
:100F9C001B681900100000F03BF905E00F23FB184B
:100FAC0001221A7000E0C0467B683D220121995451
:100FBC007B683C22002199540F23FB181B781800E6
:100FCC00BD4604B080BDC04688FFCEFFFF00FFFFCA
:100FDC0080B582B000AF7860C046BD4602B080BD1F
:100FEC0080B582B000AF7860C046BD4602B080BD0F
:100FFC0080B582B000AF7860C046BD4602B080BDFF
:10100C0080B582B000AF7860C046BD4602B080BDEE
:10101C0080B582B000AF7860C046BD4602B080BDDE
:10102C0080B584B000AF786039607B681B68FB606A
:10103C007B683F4A93420CD07A688023DB059A4246
:10104C0007D07B683B4A934203D07B683A4A934271
:10105C0008D1FB6870229343FB603B685B68FA68BD
:10106C001343FB607B68324A93421CD07A6880231E
:10107C00DB059A4217D07B682E4A934213D07B68CB
:10108C002D4A93420FD07B682C4A93420BD07B683D
:10109C002B4A934207D07B682A4A934203D07B6841
:1010AC00294A934208D1FB68284A1340FB603B68ED
:1010BC00DB68FA681343FB60FB68802293431A00D9
:1010CC003B685B691343FB607B68FA681A603B689A
:1010DC009A687B68DA623B681A687B689A627B68FC
:1010EC00134A93420BD07B68154A934207D07B6816
:1010FC00144A934203D07B68134A934203D13B6852
:10110C001A697B681A637B6801225A617B681B69C8
:10111C0001221340012B06D17B681B6901229343EA
:10112C001A007B681A61C046BD4604B080BDC0463B
:10113C00002C01400004004000080040002000404A
:10114C00004001400044014000480140FFFCFFFF0B
:10115C0080B586B000AFF860B9607A60FB681B6A36
:10116C007B61FB681B6A012293431A00FB681A62BD
:10117C00FB689B693B613B69F02293433B617B6855
:10118C001B013A6913433B617B690A2293437B61E0
:10119C007A69BB6813437B61FB683A699A61FB68A7
:1011AC007A691A62C046BD4606B080BD80B586B06D
:1011BC0000AFF860B9607A60FB681B6A7B61FB6802
:1011CC001B6A102293431A00FB681A62FB689B6926
:1011DC003B613B690D4A13403B617B681B033A69D9
:1011EC0013433B617B69A02293437B61BB681B016A
:1011FC007A6913437B61FB683A699A61FB687A6987
:10120C001A62C046BD4606B080BDC046FF0FFFFF48
:10121C0080B584B000AF786039607B689B68FB60F8
:10122C00FB68084A1340FB603A68FB6813430722CB
:10123C001343FB607B68FA689A60C046BD4604B0F5
:10124C0080BDC0468FFFCFFF80B586B000AFF86081
:10125C00B9607A603B60FB689B687B617B69094A7B
:10126C0013407B613B681A027B681A43BB681343CB
:10127C007A6913437B61FB687A699A60C046BD4604
:10128C0006B080BDFF00FFFF80B584B000AF786072
:10129C0039607B683C229B5C012B01D102235AE014
:1012AC007B683C22012199547B683D220221995490
:1012BC007B681B685B68FB607B681B689B68BB601A
:1012CC007B681B68264A934208D1FB68254A134069
:1012DC00FB603B685B68FA681343FB60FB68702239
:1012EC009343FB603B681B68FA681343FB607B68A5
:1012FC001B68FA685A607B681B68194A934214D0C1
:10130C007B681A688023DB059A420ED07B681B68C9
:10131C00154A934209D07B681B68144A934204D047
:10132C007B681B68124A93420CD1BB6880229343A2
:10133C00BB603B689B68BA681343BB607B681B68E7
:10134C00BA689A607B683D22012199547B683C22E3
:10135C000021995400231800BD4604B080BDC0463E
:10136C00002C0140FFFF0FFF00040040000800406C
:10137C000040014080B582B000AF7860C046BD46E9
:10138C0002B080BD80B582B000AF7860C046BD466B
:10139C0002B080BD80B582B000AF7860C046BD465B
:1013AC0002B080BD80B582B000AF78607B68002B46
:1013BC0001D1012346E07B6888229B58002B07D182
:1013CC007B688422002199547B681800FFF76AFB24
:1013DC007B688822242199507B681B681A687B687B
:1013EC001B6801218A431A607B689B6A002B03D01F
:1013FC007B68180000F082FB7B68180000F028F86E
:10140C000300012B01D101231CE07B681B685A6887
:10141C007B681B680D490A405A607B681B689A6898
:10142C007B681B682A218A439A607B681B681A6850
:10143C007B681B6801210A431A607B68180000F066
:10144C0011FC03001800BD4602B080BDFFB7FFFFC2
:10145C00B0B590B000AF78621A2320229B18DB192C
:10146C0000221A707B6A9A687B6A1B691A437B6A32
:10147C005B691A437B6ADB691343FB637B6A1B68FA
:10148C001B68C14A134019007B6A1A68FB6B0B433B
:10149C0013607B6A1B685B68BC4A134018007B6A4C
:1014AC00D9687B6A1A6803000B4353607B6A9B699B
:1014BC00FB637B6A1B68B64A934209D07B6A1B6844
:1014CC00B44A934204D07B6A1B6AFA6B1343FB63E6
:1014DC007B6A1B689B68B04A134019007B6A1A68C8
:1014EC00FB6B0B4393607B6A1B68DB6A0F22934395
:1014FC0018007B6A596A7B6A1A6803000B43D36233
:10150C007B6A1B68A54A934231D1A54B5B6D0322C4
:10151C001340032B1DD023D8022B0CD020D8002B2A
:10152C0002D0012B0ED01BE01B2320229B18DB19B1
:10153C0000221A7054E11B2320229B18DB19022273
:10154C001A704DE11B2320229B18DB1904221A7000
:10155C0046E11B2320229B18DB1908221A703FE15D
:10156C001B2320229B18DB1910221A7038E17B6A8E
:10157C001B688C4A934231D1894B5B6D0C22134012
:10158C000C2B1DD023D8082B0CD020D8002B02D02C
:10159C00042B0ED01BE01B2320229B18DB190022EE
:1015AC001A701DE11B2320229B18DB1902221A70D2
:1015BC0016E11B2320229B18DB1904221A700FE161
:1015CC001B2320229B18DB1908221A7008E11B230D
:1015DC0020229B18DB1910221A7001E17B6A1B6810
:1015EC00714A934231D16E4B5B6D30221340302BDC
:1015FC001DD023D8202B0CD020D8002B02D0102BA0
:10160C000ED01BE01B2320229B18DB1900221A7022
:10161C00E6E01B2320229B18DB1902221A70DFE064
:10162C001B2320229B18DB1904221A70D8E01B23E1
:10163C0020229B18DB1908221A70D1E01B232022D0
:10164C009B18DB1910221A70CAE07B6A1B68574A78
:10165C00934206D11B2320229B18DB1900221A70FF
:10166C00BEE07B6A1B68524A934206D11B232022A0
:10167C009B18DB1900221A70B2E07B6A1B684D4A7A
:10168C00934206D11B2320229B18DB1900221A70CF
:10169C00A6E07B6A1B683E4A93423ED1404B5A6D92
:1016AC00C0231B011340C0221201934227D0C02239
:1016BC00120193422AD880221201934211D0802227
:1016CC001201934222D8002B04D08022D2009342E4
:1016DC000ED01BE01B2320229B18DB1900221A7052
:1016EC007EE01B2320229B18DB1902221A7077E064
:1016FC001B2320229B18DB1904221A7070E01B2379
:10170C0020229B18DB1908221A7069E01B23202267
:10171C009B18DB1910221A7062E07B6A1B681D4A49
:10172C00934257D11E4B5A6DC0239B001340C022CD
:10173C009200934240D0C0229200934243D8802220
:10174C009200934211D08022920093423BD8002BFE
:10175C0004D08022520093420ED034E01B2320226E
:10176C009B18DB1900221A703AE01B2320229B18CD
:10177C00DB1902221A7033E01B2320229B18DB1981
:10178C0004221A702CE0C046F369FFCFFFCFFFFF95
:10179C000080004000840040FFF4FF11003801403D
:1017AC00001002400044004000480040004C004043
:1017BC0000500040003C01401B2320229B18DB19E9
:1017CC0008221A700CE01B2320229B18DB19102214
:1017DC001A7005E01B2320229B18DB1910221A70AB
:1017EC007B6A1B68C14A934205D07B6A1B68C04A5E
:1017FC00934200D093E01B2320229B18DB191B780B
:10180C00082B15D018DC042B0DD015DC002B02D0C6
:10181C00022B05D010E001F0BFF903007B6314E04C
:10182C00B44B7B6311E001F02BF903007B630CE0FC
:10183C0080231B027B6308E000237B631A23202296
:10184C009B18DB1901221A70C0467B6B002B00D150
:10185C0035E17B6A5A6AA84B5200D35A1900786B4F
:10186C00FEF74AFC0300BB627B6A5A6813005B00FC
:10187C009B18BA6A9A4205D37B6A5B681B03BA6AE7
:10188C009A4206D91A2320229B18DB1901221A70BE
:10189C0044E07B6BBB610023FB617B6A5A6A964B0D
:1018AC005200D35A3B6100237B613A697B69B8696A
:1018BC00F969FEF797FD02000B00110E1D020D4396
:1018CC0014027B6A5B685B08BB600023FB60B86832
:1018DC00F968001969417B6A5B683B6000237B6097
:1018EC003A687B68FEF77EFD02000B0013003B6339
:1018FC003A6BC0239B009A4209D33A6B80235B035B
:10190C009A4204D27B6A1B683A6BDA6006E01A23AF
:10191C0020229B18DB1901221A70D0E0CFE07B6AE1
:10192C00DA6980231B029A4200D070E01B2320222C
:10193C009B18DB191B78082B15D018DC042B0DD049
:10194C0015DC002B02D0022B05D010E001F024F99D
:10195C0003007B6314E0674B7B6311E001F090F8AC
:10196C0003007B630CE080231B027B6308E00023F5
:10197C007B631A2320229B18DB1901221A70C046A4
:10198C007B6B002B00D19AE07B6A5A6A5A4B52004F
:10199C00D35A1900786BFEF7AFFB03005A007B6A31
:1019AC005B685B08D2187B6A5B6819001000FEF755
:1019BC00A3FB03003B633B6B0F2B21D93A6B8023BA
:1019CC005B029A421CD23B6B9AB20E202024031964
:1019DC00DB190F218A431A803B6B5B089BB20722F1
:1019EC00134099B20319DB190219D21912880A4350
:1019FC001A807B6A1B680219D2191288DA605EE0C1
:101A0C001A2320229B18DB1901221A7057E01B2382
:101A1C0020229B18DB191B78082B15D018DC042B03
:101A2C000DD015DC002B02D0022B05D010E001F0FC
:101A3C00B3F803007B6314E02E4B7B6311E001F0E1
:101A4C001FF803007B630CE080231B027B6308E020
:101A5C0000237B631A2320229B18DB1901221A70A6
:101A6C00C0467B6B002B2AD07B6A5A6A224B5200F1
:101A7C00D35A1900786BFEF73FFB03001A007B6A00
:101A8C005B685B08D2187B6A5B6819001000FEF774
:101A9C0033FB03003B633B6B0F2B0AD93A6B802360
:101AAC005B029A4205D23B6B9AB27B6A1B68DA6086
:101ABC0005E01A2320229B18DB1901221A707B6A7D
:101ACC006A22012199527B6A6822012199527B6A10
:101ADC0000225A677B6A00229A671A2320229B18DD
:101AEC00DB191B781800BD4610B0B0BD008000405B
:101AFC00008400400024F4001C38000880B582B03B
:101B0C0000AF78607B689B6A082213400BD07B681F
:101B1C001B685B684A4A134019007B689A6B7B68A8
:101B2C001B680A435A607B689B6A012213400BD0E6
:101B3C007B681B685B68434A134019007B68DA6A50
:101B4C007B681B680A435A607B689B6A02221340BD
:101B5C000BD07B681B685B683B4A134019007B68A1
:101B6C001A6B7B681B680A435A607B689B6A042269
:101B7C0013400BD07B681B685B68344A1340190018
:101B8C007B685A6B7B681B680A435A607B689B6A4C
:101B9C00102213400BD07B681B689B682C4A1340A7
:101BAC0019007B68DA6B7B681B680A439A607B6858
:101BBC009B6A202213400BD07B681B689B68254ACC
:101BCC00134019007B681A6C7B681B680A439A6087
:101BDC007B689B6A402213401DD07B681B685B6846
:101BEC001D4A134019007B685A6C7B681B680A43BA
:101BFC005A607B685A6C80235B039A420BD17B68DA
:101C0C001B685B68154A134019007B689A6C7B68EB
:101C1C001B680A435A607B689B6A802213400BD076
:101C2C007B681B685B680E4A134019007B68DA6C92
:101C3C007B681B680A435A60C046BD4602B080BD33
:101C4C00FF7FFFFFFFFFFDFFFFFFFEFFFFFFFBFF1F
:101C5C00FFEFFFFFFFDFFFFFFFFFEFFFFFFF9FFF28
:101C6C00FFFFF7FF80B592B002AF78607B689022DF
:101C7C000021995001F020FD0300FB637B681B6879
:101C8C001B6808221340082B2DD1FB6B802291037B
:101C9C007868474A0092002200F08EF8031E22D08A
:101CAC00EFF310837B627B6ABB630123BB62BB6A6D
:101CBC0083F31088C0467B681B681A687B681B68B6
:101CCC0080218A431A60BB6BFB62FB6A83F310882A
:101CDC00C0467B688822202199507B688422002191
:101CEC009954032360E07B681B681B680422134033
:101CFC00042B46D1FB6B8022D10378682C4A0092CE
:101D0C00002200F059F8031E3BD0EFF31083FB6068
:101D1C00FB687B6301233B613B6983F31088C046FE
:101D2C007B681B681A687B681B6822490A401A602A
:101D3C007B6B7B617B6983F31088C046EFF3108368
:101D4C00BB61BB693B630123FB61FB6983F31088B7
:101D5C00C0467B681B689A687B681B6801218A43B4
:101D6C009A603B6B3B623B6A83F31088C0467B688E
:101D7C008C22202199507B688422002199540323C2
:101D8C0012E07B688822202199507B688C222021CC
:101D9C0099507B680022DA667B6800221A677B68A0
:101DAC0084220021995400231800BD4610B080BD38
:101DBC00FFFFFF01DFFEFFFF80B584B000AFF860CE
:101DCC00B9603B60FB1D1A7051E0BB6901334ED00A
:101DDC0001F072FC02003B68D31ABA699A4202D332
:101DEC00BB69002B01D1032351E0FB681B681B6806
:101DFC00042213403BD0BB68802B38D0BB68402BEF
:101E0C0035D0FB681B68DB6908221340082B11D105
:101E1C00FB681B6808221A62FB68180000F03CF88B
:101E2C00FB68902208219950FB6884220021995468
:101E3C0001232CE0FB681B68DA6980231B011A4024
:101E4C0080231B019A4212D1FB681B68802212016D
:101E5C001A62FB68180000F01FF8FB689022202122
:101E6C009950FB6884220021995403230FE0FB68EE
:101E7C001B68DB69BA681340BA68D31A5A425341DB
:101E8C00DBB21A00FB1D1B789A429ED0002318006F
:101E9C00BD4604B080BD000080B58EB000AF786048
:101EAC00EFF310837B617B697B630123BB61BB69AF
:101EBC0083F31088C0467B681B681A687B681B68B4
:101ECC0026490A401A607B6BFB61FB6983F310881F
:101EDC00C046EFF310833B623B6A3B6301237B629A
:101EEC007B6A83F31088C0467B681B689A687B68A2
:101EFC001B681B490A409A603B6BBB62BB6A83F34D
:101F0C001088C0467B68DB6E012B18D1EFF3108371
:101F1C00BB60BB68FB620123FB60FB6883F310882A
:101F2C00C0467B681B681A687B681B6810218A4353
:101F3C001A60FB6A3B613B6983F31088C0467B687F
:101F4C008C22202199507B680022DA667B68002263
:101F5C005A67C046BD460EB080BDC046DFFEFFFFCF
:101F6C00FEFFFFEF80B584B000AF78607B68842201
:101F7C009B5C012B01D1022327E07B688422012189
:101F8C0099547B688822242199507B681B681B68B4
:101F9C00FB607B681B681A687B681B6801218A439D
:101FAC001A60FB680B4A1340FB607B6800225A6680
:101FBC007B681B68FA681A607B688822202199501C
:101FCC007B6884220021995400231800BD4604B07C
:101FDC0080BDC046FFFFFFDF80B584B000AF7860E6
:101FEC0039607B6884229B5C012B01D102232EE09B
:101FFC007B688422012199547B6888222421995082
:10200C007B681B681B68FB607B681B681A687B68B5
:10201C001B6801218A431A607B681B689B68DB0084
:10202C00D9087B681B683A680A439A607B68180079
:10203C0000F054F87B681B68FA681A607B68882289
:10204C00202199507B688422002199540023180088
:10205C00BD4604B080BD000080B584B000AF786090
:10206C0039607B6884229B5C012B01D102232FE019
:10207C007B688422012199547B6888222421995001
:10208C007B681B681B68FB607B681B681A687B6835
:10209C001B6801218A431A607B681B689B680E4A87
:1020AC00134019007B681B683A680A439A607B6886
:1020BC00180000F013F87B681B68FA681A607B68DC
:1020CC008822202199507B68842200219954002376
:1020DC001800BD4604B080BDFFFFFFF1F0B585B020
:1020EC0000AF78607B685B6E002B08D17B686A223E
:1020FC00012199527B6868220121995243E00F26F5
:10210C00BB1908221A700E203B1808221A707B6823
:10211C001B689B685B0EDAB20D243B1907210A4041
:10212C001A707B681B689B685B0FDAB20C257B19F5
:10213C0007210A401A703B181B787A191278144937
:10214C008A5C5A4310007B191B78124AD35C190025
:10215C00FEF75CF8030099B27B686A229952BB19AE
:10216C001B783A1912780A498A5C5A4310003B19B9
:10217C001B78084AD35C1900FEF748F8030099B2A3
:10218C007B6868229952C046BD4605B0F0BDC0467A
:10219C00343800083C38000880B500AF034B9A680F
:1021AC00E023DB0113401800BD4680BD0010024047
:1021BC0080B588B000AF78607B68002B02D101231A
:1021CC0000F050FB7B681B680122134000D17CE0BF
:1021DC00C34B9B6838221340BB61C14BDB680322A5
:1021EC0013407B61BB69102B02D17B69032B02D09E
:1021FC00BB69082B0BD1BA4B1A6880239B02134086
:10220C0062D07B685B68002B5ED101232AE37B687C
:10221C005A6880235B029A4207D1B14B1A68B04BC3
:10222C00802149020A431A6020E07B685A68A02387
:10223C00DB029A420ED1AA4B1A68A94B8021C90223
:10224C000A431A60A64B1A68A54B802149020A431F
:10225C001A600BE0A24B1A68A14BA2490A401A6003
:10226C009F4B1A689E4BA0490A401A607B685B68BA
:10227C00002B14D001F020FA03003B6108E001F0C0
:10228C001BFA02003B69D31A642B01D90323E9E240
:10229C00934B1A6880239B021340F0D015E001F099
:1022AC000BFA03003B6108E001F006FA02003B69FF
:1022BC00D31A642B01D90323D4E2894B1A688023E7
:1022CC009B021340F0D100E0C0467B681B680222E1
:1022DC00134000D199E0824B9B6838221340BB61BC
:1022EC007F4BDB68032213407B61BB69102B02D14F
:1022FC007B69022B02D0BB69002B35D1784B1A6855
:10230C008023DB00134005D07B68DB68002B01D1F8
:10231C000123A7E2724B5B68744A134019007B6877
:10232C005B691A026E4B0A435A60BB69002B12D1CF
:10233C006B4B1B686E4A134019007B681A69684B1B
:10234C000A431A60664B1B68DB0A07221340694A72
:10235C00DA40694B1A60694B1B68180001F050F9A0
:10236C00031E51D001237DE27B68DB68002B30D04B
:10237C005B4B1B685E4A134019007B681A69584B0B
:10238C000A431A60564B1A68554B802149000A4380
:10239C001A6001F091F903003B6108E001F08CF93F
:1023AC0002003B69D31A022B01D903235AE24C4B8E
:1023BC001A688023DB001340F0D0494B5B684B4A12
:1023CC00134019007B685B691A02454B0A435A603B
:1023DC001BE0434B1A68424B49490A401A6001F012
:1023EC006BF903003B6108E001F066F902003B6900
:1023FC00D31A022B01D9032334E2394B1A688023F8
:10240C00DB001340F0D100E0C0467B681B6808225B
:10241C00134047D0324B9B6838221340182B0AD1FB
:10242C002F4B1B6E022213403CD07B689B69002B08
:10243C0038D1012316E27B689B69002B19D0284BFD
:10244C001A6E274B01210A431A6601F035F9030075
:10245C003B6108E001F030F902003B69D31A022B12
:10246C0001D90323FEE11E4B1B6E02221340F1D057
:10247C0018E01B4B1A6E1A4B01218A431A6601F0A5
:10248C001BF903003B6108E001F016F902003B69FF
:10249C00D31A022B01D90323E4E1114B1B6E022248
:1024AC001340F1D17B681B680422134000D1C7E0B4
:1024BC001F23FB1800221A70094B9B68382213400B
:1024CC00202B1FD1064BDB6D0222134000D1B7E04D
:1024DC007B689B68002B00D0B2E00123C2E1C046B0
:1024EC0000100240FFFFFEFFFFFFFBFFFF80FFFF1E
:1024FC00FFC7FFFF0024F4000800002000000020AC
:10250C00FFFEFFFFB54BDA6B80235B05134001D157
:10251C00012300E00023002B11D0B04BDA6BAF4B42
:10252C00802149050A43DA63AC4BDA6B80235B05E7
:10253C001340FB60FB681F23FB1801221A70A84B89
:10254C001A6880235B0013401AD1A54B1A68A44B60
:10255C00802149000A431A6001F0AEF803003B6188
:10256C0008E001F0A9F802003B69D31A022B01D94B
:10257C00032377E19A4B1A6880235B001340F0D059
:10258C007B689B68012B06D1944BDA6D934B012130
:10259C000A43DA651CE07B689B68052B0CD18F4BDA
:1025AC00DA6D8E4B04210A43DA658C4BDA6D8B4B5A
:1025BC0001210A43DA650BE0884BDA6D874B012168
:1025CC008A43DA65854BDA6D844B04218A43DA65DC
:1025DC007B689B68002B14D001F06EF803003B6104
:1025EC0009E001F069F802003B69D31A7D4A934275
:1025FC0001D9032336E1794BDB6D02221340F0D075
:10260C0013E001F059F803003B6109E001F054F8C4
:10261C0002003B69D31A734A934201D9032321E187
:10262C006E4BDB6D02221340F0D11F23FB181B787D
:10263C00012B05D1694BDA6B684B6B490A40DA63A5
:10264C007B681B682022134039D07B68DB69002B28
:10265C001BD0624B1A68614B8021C9030A431A6074
:10266C0001F02AF803003B6108E001F025F80200B4
:10267C003B69D31A022B01D90323F3E0574B1A6899
:10268C0080231B041340F0D019E0544B1A68534BB1
:10269C0056490A401A6001F00FF803003B6108E04C
:1026AC0001F00AF802003B69D31A022B01D903236B
:1026BC00D8E04A4B1A6880231B041340F0D17B6886
:1026CC001B6A002B00D1CCE0444B9B683822134092
:1026DC00102B00D17BE07B681B6A022B56D13F4B41
:1026EC001A683E4B42490A401A6000F0E5FF0300AD
:1026FC003B6108E000F0E0FF02003B69D31A022BBB
:10270C0001D90323AEE0354B1A6880239B04134098
:10271C00F0D1324BDB68374A134019007B685A6A98
:10272C007B689B6A1A437B68DB6A1B021A437B68D3
:10273C001B6B1A437B685B6B1A437B689B6B1A435E
:10274C00264B0A43DA60254B1A68244B8021490436
:10275C000A431A60214BDA68204B802149050A4351
:10276C00DA6000F0A9FF03003B6108E000F0A4FF71
:10277C0002003B69D31A022B01D9032372E0174BD9
:10278C001A6880239B041340F0D06AE0134B1A683C
:10279C00124B17490A401A6000F08EFF03003B6190
:1027AC0008E000F089FF02003B69D31A022B01D923
:1027BC00032357E0094B1A6880239B041340F0D184
:1027CC00064BDA68054B0C490A40DA6049E07B6835
:1027DC001B6A012B12D1012344E0C04600100240B9
:1027EC000070004088130000FFFFFFEFFFFFBFFFEA
:1027FC00FFFFFFFE8C80C111FCFFFEEE1B4BDB6864
:10280C007B617B6903221A407B685B6A9A4226D102
:10281C007B6970221A407B689B6A9A421FD17A6945
:10282C00FE23DB011A407B68DB6A1B029A4216D13D
:10283C007A69F8239B031A407B681B6B9A420ED172
:10284C007A69E0231B051A407B685B6B9A4206D1C0
:10285C007B695B0F5A077B689B6B9A4201D0012303
:10286C0000E000231800BD4608B080BD00100240F7
:10287C0080B584B000AF786039607B68002B01D1E3
:10288C000123E9E0764B1B68072213403A689A4211
:10289C001ED9734B1B68072293431900704B3A687F
:1028AC000A431A6000F008FF0300FB6009E000F027
:1028BC0003FF0200FB68D31A6A4A934201D903232F
:1028CC00CAE0674B1B68072213403A689A42EED164
:1028DC007B681B680222134015D07B681B6804229E
:1028EC00134006D0604B9A685F4BE021C9010A4344
:1028FC009A605D4B9B685D4A134019007B689A682F
:10290C00594B0A439A607B681B680122134057D0CD
:10291C007B685B68012B07D1534B1A6880239B02A1
:10292C0013402BD1012397E07B685B68022B07D106
:10293C004D4B1A6880239B0413401FD101238BE05D
:10294C007B685B68002B07D1474B1A688023DB0040
:10295C00134013D101237FE07B685B68032B06D106
:10296C00414B1B6E0222134008D1012374E03E4BF5
:10297C00DB6D0222134001D101236DE03A4B9B68C1
:10298C000722934319007B685A68374B0A439A60B5
:10299C0000F092FE0300FB6009E000F08DFE0200E7
:1029AC00FB68D31A2F4A934201D9032354E02E4BD0
:1029BC009B6838221A407B685B68DB009A42ECD13A
:1029CC00274B1B68072213403A689A421ED2244BAD
:1029DC001B68072293431900214B3A680A431A607B
:1029EC0000F06AFE0300FB6009E000F065FE0200E7
:1029FC00FB68D31A1B4A934201D903232CE0184BD2
:102A0C001B68072213403A689A42EED17B681B6818
:102A1C000422134009D0144B9B68154A134019002B
:102A2C007B68DA68104B0A439A6000F029F80100C1
:102A3C000D4B9B681B0A0F221A400E4B9200D35869
:102A4C001F2213400A00DA400B4B1A600B4B1B6819
:102A5C00180000F0D5FD03001800BD4604B080BD81
:102A6C00002002408813000000100240FFF0FFFF1E
:102A7C00FF8FFFFF443800080800002000000020F2
:102A8C0080B586B000AF3C4B9B68382213400FD109
:102A9C00394B1B68DB0A0722134001229A401300B2
:102AAC003B6039683548FDF727FB03003B615DE06F
:102ABC00314B9B6838221340082B02D1304B3B61C1
:102ACC0054E02D4B9B6838221340102B38D12A4BE5
:102ADC00DB6803221340FB60274BDB681B090722D2
:102AEC0013400133BB60FB68032B0DD1B96824483C
:102AFC00FDF702FB030019001F4BDB681B0A7F224A
:102B0C0013404B437B610DE0B9681C48FDF7F4FAA8
:102B1C0003001900184BDB681B0A7F2213404B4340
:102B2C007B61C046144BDB685B0F072213400133FB
:102B3C007B6079687869FDF7DFFA03003B6115E08B
:102B4C000D4B9B6838221340202B03D180231B0292
:102B5C003B610BE0084B9B6838221340182B03D1C8
:102B6C00FA23DB013B6101E000233B613B69180068
:102B7C00BD4606B080BDC046001002400024F400E3
:102B8C0000127A0080B500AF024B1B681800BD46DE
:102B9C0080BDC04608000020B0B500AFFFF7F2FFC3
:102BAC000400FFF7F9FA03001A0B054B9200D358F7
:102BBC001F221340DC4023001800BD46B0BDC046A8
:102BCC008438000880B586B000AF78601323FB18FA
:102BDC0000221A701223FB1800221A707B681A68E4
:102BEC0080239B02134000D1ADE011203B18002242
:102BFC001A70474BDA6B80235B05134010D1444BA2
:102C0C00DA6B434B802149050A43DA63404BDA6B9C
:102C1C0080235B051340BB60BB683B1801221A7014
:102C2C003C4B1A683B4B802149000A431A6000F068
:102C3C0043FD0300FB600BE000F03EFD0200FB686F
:102C4C00D31A022B04D91323FB1803221A7005E0A4
:102C5C00304B1A6880235B001340EDD01323FB1814
:102C6C001B78002B5ED12A4BDA6DC0239B001340DE
:102C7C007B617B69002B19D07B681B6C7A699A424B
:102C8C0014D0234BDB6D244A13407B61204BDA6D4F
:102C9C001F4B802149020A43DA651D4BDA6D1C4B30
:102CAC001E490A40DA651A4B7A69DA657B6901229A
:102CBC00134016D000F000FD0300FB600CE000F0A8
:102CCC00FBFC0200FB68D31A154A934204D9132368
:102CDC00FB1803221A7004E00D4BDB6D022213402B
:102CEC00EDD01323FB181B78002B0AD1084BDB6D9E
:102CFC00094A134019007B681A6C054B0A43DA65C4
:102D0C0016E01223FB181322BA1812781A700FE06F
:102D1C000010024000700040FFFCFFFFFFFFFEFFB1
:102D2C00881300001223FB181322BA1812781A7099
:102D3C001123FB181B78012B05D1B64BDA6BB54B65
:102D4C00B5490A40DA637B681B680122134009D03D
:102D5C00B04B5B6D0322934319007B685A68AD4BF3
:102D6C000A435A657B681B680222134009D0A94BA1
:102D7C005B6D0C22934319007B689A68A54B0A4340
:102D8C005A657B681B680422134009D0A14B5B6D0C
:102D9C003022934319007B68DA689E4B0A435A65CC
:102DAC007B681B681022134009D09A4B5B6D9B4AC1
:102DBC00134019007B681A69964B0A435A657B6865
:102DCC001A6880235B01134009D0924B5B6D944AC7
:102DDC00134019007B685A698E4B0A435A657B680D
:102DEC001A6880239B00134009D08A4B5B6D8D4A77
:102DFC00134019007B689A6A864B0A435A657B68B4
:102E0C001A688023DB00134009D0824B5B6D864A25
:102E1C00134019007B68DA6A7E4B0A435A657B685B
:102E2C001B682022134009D07A4B5B6D7F4A1340FC
:102E3C0019007B689A69774B0A435A657B681B6853
:102E4C004022134009D0734B5B6D794A1340190033
:102E5C007B68DA696F4B0A435A657B681A68802372
:102E6C00DB01134015D06B4B5B6D9B0099087B68A5
:102E7C001A6B684B0A435A657B681A6B8023DB0517
:102E8C009A4206D1634BDA68624B802149020A43AD
:102E9C00DA607B681A6880231B03134009D05D4BF2
:102EAC005B6D4022934319007B685A6B594B0A4364
:102EBC005A657B681A6880239B03134016D0554BC8
:102ECC005B6D5C4A134019007B689A6B514B0A434B
:102EDC005A657B689A6B8023DB039A4206D14D4B73
:102EEC00DA684C4B802149040A43DA607B681A6823
:102EFC008023DB03134016D0464B5B6D4E4A1340C8
:102F0C0019007B68DA6B434B0A435A657B68DA6BB2
:102F1C0080235B049A4206D13E4BDA683D4B8021FC
:102F2C0049040A43DA607B681A6880231B0113404A
:102F3C0014D0384B9B6D0322934319007B681A6A9B
:102F4C00344B0A439A657B681B6A012B06D1314BC3
:102F5C00DA68304B802149020A43DA607B681A68D0
:102F6C0080239B01134014D02A4B9B6D0C2293435E
:102F7C0019007B685A6A274B0A439A657B685B6A1F
:102F8C00042B06D1234BDA68224B802149020A43D9
:102F9C00DA607B681A6880235B04134016D01D4BE3
:102FAC009B6D224A134019007B685A6C194B0A43DB
:102FBC009A657B685A6C80239B019A4206D1154B0B
:102FCC00DA68144B802149040A43DA607B681A687A
:102FDC0080239B04134016D00E4B9B6D104A13405C
:102FEC0019007B689A6C0B4B0A439A657B689A6C48
:102FFC0080235B009A4206D1064BDA68054B802190
:10300C0049040A43DA601223FB181B781800BD46EA
:10301C0006B080BD00100240FFFFFFEFFFF3FFFF83
:10302C00FFFCFFFFFFFFF3FFFFFFCFFFFFCFFFFF13
:10303C00FF3FFFFFFFFFBFFFFFFFFFFE80B586B026
:10304C0000AF7860396000237B614DE13B681B6801
:10305C0001217A6991400A001340FB60FB68002B48
:10306C0000D13EE13B685B6803221340012B05D085
:10307C003B685B6803221340022B30D17B689B6852
:10308C003B617B695B0003229A401300DA433B6986
:10309C0013403B613B68DA687B695B009A40130024
:1030AC003A6913433B617B683A699A607B685B6859
:1030BC003B6101227B699A401300DA433B69134060
:1030CC003B613B685B681B0901221A407B699A4093
:1030DC0013003A6913433B617B683A695A603B6859
:1030EC005B6803221340032B17D07B68DB683B61C2
:1030FC007B695B0003229A401300DA433B6913405F
:10310C003B613B689A687B695B009A4013003A69A3
:10311C0013433B617B683A69DA603B685B68032266
:10312C001340022B23D17B69DA087B6808329200AA
:10313C00D3583B617B69072213409B000F229A40B6
:10314C001300DA433B6913403B613B681A697B69A6
:10315C0007210B409B009A4013003A6913433B61D3
:10316C007B69DA087B68083292003969D1507B6838
:10317C001B683B617B695B0003229A401300DA43B6
:10318C003B6913403B613B685B6803221A407B69D7
:10319C005B009A4013003A6913433B617B683A69C0
:1031AC001A603B685A68C0239B02134000D198E018
:1031BC00534A7B699B0818339B009B583B617B6986
:1031CC0003221340DB000F229A401300DA433B69C1
:1031DC0013403B617A68A023DB059A4219D07B68C7
:1031EC00484A934213D07B68474A93420DD07B6880
:1031FC00464A934207D07B68454A934201D1042347
:10320C0008E0052306E0032304E0022302E0012387
:10321C0000E000237A6903210A40D20093403A6906
:10322C0013433B6136497B699B0818339B003A6911
:10323C005A50334B1B683B61FB68DA433B691340C4
:10324C003B613B685A6880235B03134003D03A69A7
:10325C00FB6813433B612A4B3A691A60284B5B6845
:10326C003B61FB68DA433B6913403B613B685A683E
:10327C0080239B03134003D03A69FB6813433B61E3
:10328C001F4B3A695A601E4A8423D3583B61FB6832
:10329C00DA433B6913403B613B685A6880239B02CD
:1032AC00134003D03A69FB6813433B6114498422F1
:1032BC003B698B50124A8023D3583B61FB68DA433D
:1032CC003B6913403B613B685A6880235B021340A7
:1032DC0003D03A69FB6813433B61094980223B697F
:1032EC008B507B6901337B613B681A687B69DA40E0
:1032FC00131E00D0AAE6C046C046BD4606B080BD2F
:10330C00001802400004005000080050000C00504F
:10331C000010005080B582B000AF7860080011003A
:10332C00BB1C021C1A807B1C0A1C1A707B1C1B7891
:10333C00002B04D0BB1C1A887B689A6103E0BB1C71
:10334C001A887B689A62C046BD4602B080BD80B5C3
:10335C0084B000AF78600A00BB1C1A807B685B6984
:10336C00FB60BB1C1B88FA6813401A04FB68DB4328
:10337C00B91C09880B401A437B689A61C046BD464C
:10338C0004B080BD80B584B000AF7860194B1B6869
:10339C00194A13401900174B7A680A431A607A6865
:1033AC0080239B009A421FD1144B1A6813005B00B8
:1033BC009B185B0012491800FCF79EFE03000133BA
:1033CC00FB6008E0FB68002B03D0FB68013BFB6053
:1033DC0001E0032309E0074B5A698023DB001A4004
:1033EC008023DB009A42EDD000231800BD4604B0C8
:1033FC0080BDC04600700040FFF9FFFF08000020B0
:10340C0040420F0080B582B000AF0200FB1D1A7065
:10341C00FB1D1B787F2B09D8FB1D1B781A001F2363
:10342C001A40044B012191400A001A60C046BD4667
:10343C0002B080BD00E100E090B583B000AF0200A7
:10344C003960FB1D1A70FB1D1B787F2B28D82F4A67
:10345C00FB1D1B785BB29B08C0339B009B58FA1D6D
:10346C001278110003220A40D200FF2191400A0079
:10347C00D2431A4011003B689B01FF221A40FB1DEE
:10348C001B78180003230340DB009A401F48FB1DE8
:10349C001B785BB29B080A43C0339B001A5031E087
:1034AC001B4AFB1D1B7819000F230B40083B9B0884
:1034BC0006339B00D31804331B68FA1D12781100D5
:1034CC0003220A40D200FF2191400A00D2431A4045
:1034DC0011003B689B01FF221A40FB1D1B78180052
:1034EC0003230340DB009A400948FB1D1B781C009A
:1034FC000F232340083B9B080A4306339B00C31849
:10350C0004331A60C046BD4603B090BD00E100E034
:10351C0000ED00E080B582B000AF78607B685A1E89
:10352C0080235B049A4201D3012310E00A4B7A6892
:10353C00013A5A6001235B4203211800FFF77CFF1C
:10354C00054B00229A60044B07221A6000231800D6
:10355C00BD4602B080BDC04610E000E080B584B02E
:10356C0000AFB9607A600F217B18021C1A70BA6820
:10357C007B181B785BB211001800FFF75DFFC0468B
:10358C00BD4604B080BD80B582B000AF0200FB1D0B
:10359C001A70FB1D1B785BB21800FFF733FFC04697
:1035AC00BD4602B080BD80B582B000AF78607B684C
:1035BC001800FFF7AFFF03001800BD4602B080BD36
:1035CC0080B582B000AFFB1D00221A700B4B1A683D
:1035DC000A4B802149000A431A60002000F010F8C1
:1035EC00031E03D0FB1D01221A7001E0FDF7FAF94E
:1035FC00FB1D1B781800BD4602B080BD00200240A8
:10360C0090B585B000AF78600F23FB1800221A70BC
:10361C001D4B1B78002B2BD01C4B1C681A4B1B789A
:10362C001900FA239800FCF767FD0300190020002D
:10363C00FCF762FD03001800FFF7B5FF031E12D163
:10364C007B68032B0AD8796801235B42002218009F
:10365C00FFF784FF0E4B7A681A600DE00F23FB18FE
:10366C0001221A7008E00F23FB1801221A7003E0E4
:10367C000F23FB1801221A700F23FB181B7818005C
:10368C00BD4605B090BDC0460400002008000020D7
:10369C000000002080B500AF054B1B781A00054BCD
:1036AC001B68D218034B1A60C046BD4680BDC0468D
:1036BC00040000205401002080B500AF024B1B68B1
:1036CC001800BD4680BDC0465401002080B584B0B2
:1036DC0000AF7860FFF7F0FF0300BB607B68FB6016
:1036EC00FB68013305D00A4B1B781A00FB689B184A
:1036FC00FB60C046FFF7E0FF0200BB68D31AFA6814
:10370C009A42F7D8C046C046BD4604B080BDC046FC
:10371C000400002080B582B000AF7860064B1B68B7
:10372C00064A13401900044B7A680A431A60C046D3
:10373C00BD4602B080BDC04600000140FFF9FFFF4E
:10374C0080B500AFC046BD4680BD00000D48854623
:10375C00FFF7F6FF0C480D490D4A002302E0D45840
:10376C00C4500433C4188C42F9D30A4A0A4C0023BF
:10377C0001E013600432A242FBD300F011F8FCF715
:10378C0047FFFEE700400220000000200C00002054
:10379C00B43800080C00002058010020FEE700009F
:1037AC0070B500260C4D0D4C641BA410A64209D11B
:1037BC00002600F021F80A4D0A4C641BA410A64206
:1037CC0005D170BDB300EB5898470136EEE7B30056
:1037DC00EB5898470136F2E7AC380008AC380008D3
:1037EC00AC380008B038000803008218934200D1AE
:1037FC00704719700133F9E7F8B5C046F8BC08BC3E
:10380C009E467047F8B5C046F8BC08BC9E4670474B
:10381C00010002000400060008000A000C00100061
:10382C00200040008000000101010103070100009D
:10383C00080402040801010100000000000000005F
:10384C00000000000000000000000000000000006C
:10385C000000000000000000010000000200000059
:10386C000300000004000000060000000700000038
:10387C00080000000900000000000000000000002B
:10388C000000000000000000010000000200000029
:08389C0003000000040000001D
:0838A4008CCBFF7F0100000046
:0438AC00E50000082B
:0438B000BD0000084F
:0C38B40004000000010000000024F400EB
:04000005080037595F
:00000001FF
